{
  "_format": "hh-sol-artifact-1",
  "contractName": "MyNFT",
  "sourceName": "contracts/MyNFT.sol",
  "abi": [
    {
      "inputs": [],
      "stateMutability": "nonpayable",
      "type": "constructor"
    },
    {
      "anonymous": false,
      "inputs": [
        {
          "indexed": true,
          "internalType": "address",
          "name": "owner",
          "type": "address"
        },
        {
          "indexed": true,
          "internalType": "address",
          "name": "approved",
          "type": "address"
        },
        {
          "indexed": true,
          "internalType": "uint256",
          "name": "tokenId",
          "type": "uint256"
        }
      ],
      "name": "Approval",
      "type": "event"
    },
    {
      "anonymous": false,
      "inputs": [
        {
          "indexed": true,
          "internalType": "address",
          "name": "owner",
          "type": "address"
        },
        {
          "indexed": true,
          "internalType": "address",
          "name": "operator",
          "type": "address"
        },
        {
          "indexed": false,
          "internalType": "bool",
          "name": "approved",
          "type": "bool"
        }
      ],
      "name": "ApprovalForAll",
      "type": "event"
    },
    {
      "anonymous": false,
      "inputs": [
        {
          "indexed": true,
          "internalType": "address",
          "name": "previousOwner",
          "type": "address"
        },
        {
          "indexed": true,
          "internalType": "address",
          "name": "newOwner",
          "type": "address"
        }
      ],
      "name": "OwnershipTransferred",
      "type": "event"
    },
    {
      "anonymous": false,
      "inputs": [
        {
          "indexed": true,
          "internalType": "address",
          "name": "from",
          "type": "address"
        },
        {
          "indexed": true,
          "internalType": "address",
          "name": "to",
          "type": "address"
        },
        {
          "indexed": true,
          "internalType": "uint256",
          "name": "tokenId",
          "type": "uint256"
        }
      ],
      "name": "Transfer",
      "type": "event"
    },
    {
      "inputs": [
        {
          "internalType": "address",
          "name": "to",
          "type": "address"
        },
        {
          "internalType": "uint256",
          "name": "tokenId",
          "type": "uint256"
        }
      ],
      "name": "approve",
      "outputs": [],
      "stateMutability": "nonpayable",
      "type": "function"
    },
    {
      "inputs": [
        {
          "internalType": "address",
          "name": "owner",
          "type": "address"
        }
      ],
      "name": "balanceOf",
      "outputs": [
        {
          "internalType": "uint256",
          "name": "",
          "type": "uint256"
        }
      ],
      "stateMutability": "view",
      "type": "function"
    },
    {
      "inputs": [
        {
          "internalType": "uint256",
          "name": "tokenId",
          "type": "uint256"
        }
      ],
      "name": "getApproved",
      "outputs": [
        {
          "internalType": "address",
          "name": "",
          "type": "address"
        }
      ],
      "stateMutability": "view",
      "type": "function"
    },
    {
      "inputs": [
        {
          "internalType": "address",
          "name": "owner",
          "type": "address"
        },
        {
          "internalType": "address",
          "name": "operator",
          "type": "address"
        }
      ],
      "name": "isApprovedForAll",
      "outputs": [
        {
          "internalType": "bool",
          "name": "",
          "type": "bool"
        }
      ],
      "stateMutability": "view",
      "type": "function"
    },
    {
      "inputs": [
        {
          "internalType": "uint256",
          "name": "tokenId",
          "type": "uint256"
        }
      ],
      "name": "likeOrDislike",
      "outputs": [],
      "stateMutability": "nonpayable",
      "type": "function"
    },
    {
      "inputs": [
        {
          "internalType": "uint256",
          "name": "",
          "type": "uint256"
        }
      ],
      "name": "likes",
      "outputs": [
        {
          "internalType": "uint256",
          "name": "",
          "type": "uint256"
        }
      ],
      "stateMutability": "view",
      "type": "function"
    },
    {
      "inputs": [],
      "name": "name",
      "outputs": [
        {
          "internalType": "string",
          "name": "",
          "type": "string"
        }
      ],
      "stateMutability": "view",
      "type": "function"
    },
    {
      "inputs": [],
      "name": "owner",
      "outputs": [
        {
          "internalType": "address",
          "name": "",
          "type": "address"
        }
      ],
      "stateMutability": "view",
      "type": "function"
    },
    {
      "inputs": [
        {
          "internalType": "uint256",
          "name": "tokenId",
          "type": "uint256"
        }
      ],
      "name": "ownerOf",
      "outputs": [
        {
          "internalType": "address",
          "name": "",
          "type": "address"
        }
      ],
      "stateMutability": "view",
      "type": "function"
    },
    {
      "inputs": [],
      "name": "renounceOwnership",
      "outputs": [],
      "stateMutability": "nonpayable",
      "type": "function"
    },
    {
      "inputs": [
        {
          "internalType": "address",
          "name": "to",
          "type": "address"
        },
        {
          "internalType": "string",
          "name": "uri",
          "type": "string"
        }
      ],
      "name": "safeMint",
      "outputs": [],
      "stateMutability": "nonpayable",
      "type": "function"
    },
    {
      "inputs": [
        {
          "internalType": "address",
          "name": "from",
          "type": "address"
        },
        {
          "internalType": "address",
          "name": "to",
          "type": "address"
        },
        {
          "internalType": "uint256",
          "name": "tokenId",
          "type": "uint256"
        }
      ],
      "name": "safeTransferFrom",
      "outputs": [],
      "stateMutability": "nonpayable",
      "type": "function"
    },
    {
      "inputs": [
        {
          "internalType": "address",
          "name": "from",
          "type": "address"
        },
        {
          "internalType": "address",
          "name": "to",
          "type": "address"
        },
        {
          "internalType": "uint256",
          "name": "tokenId",
          "type": "uint256"
        },
        {
          "internalType": "bytes",
          "name": "data",
          "type": "bytes"
        }
      ],
      "name": "safeTransferFrom",
      "outputs": [],
      "stateMutability": "nonpayable",
      "type": "function"
    },
    {
      "inputs": [
        {
          "internalType": "address",
          "name": "operator",
          "type": "address"
        },
        {
          "internalType": "bool",
          "name": "approved",
          "type": "bool"
        }
      ],
      "name": "setApprovalForAll",
      "outputs": [],
      "stateMutability": "nonpayable",
      "type": "function"
    },
    {
      "inputs": [
        {
          "internalType": "bytes4",
          "name": "interfaceId",
          "type": "bytes4"
        }
      ],
      "name": "supportsInterface",
      "outputs": [
        {
          "internalType": "bool",
          "name": "",
          "type": "bool"
        }
      ],
      "stateMutability": "view",
      "type": "function"
    },
    {
      "inputs": [],
      "name": "symbol",
      "outputs": [
        {
          "internalType": "string",
          "name": "",
          "type": "string"
        }
      ],
      "stateMutability": "view",
      "type": "function"
    },
    {
      "inputs": [
        {
          "internalType": "uint256",
          "name": "tokenId",
          "type": "uint256"
        }
      ],
      "name": "tipNftOwner",
      "outputs": [
        {
          "internalType": "bool",
          "name": "success",
          "type": "bool"
        }
      ],
      "stateMutability": "payable",
      "type": "function"
    },
    {
      "inputs": [
        {
          "internalType": "uint256",
          "name": "index",
          "type": "uint256"
        }
      ],
      "name": "tokenByIndex",
      "outputs": [
        {
          "internalType": "uint256",
          "name": "",
          "type": "uint256"
        }
      ],
      "stateMutability": "view",
      "type": "function"
    },
    {
      "inputs": [
        {
          "internalType": "address",
          "name": "owner",
          "type": "address"
        },
        {
          "internalType": "uint256",
          "name": "index",
          "type": "uint256"
        }
      ],
      "name": "tokenOfOwnerByIndex",
      "outputs": [
        {
          "internalType": "uint256",
          "name": "",
          "type": "uint256"
        }
      ],
      "stateMutability": "view",
      "type": "function"
    },
    {
      "inputs": [
        {
          "internalType": "uint256",
          "name": "",
          "type": "uint256"
        },
        {
          "internalType": "address",
          "name": "",
          "type": "address"
        }
      ],
      "name": "tokenOnwerTipBalance",
      "outputs": [
        {
          "internalType": "uint256",
          "name": "",
          "type": "uint256"
        }
      ],
      "stateMutability": "view",
      "type": "function"
    },
    {
      "inputs": [
        {
          "internalType": "uint256",
          "name": "tokenId",
          "type": "uint256"
        }
      ],
      "name": "tokenURI",
      "outputs": [
        {
          "internalType": "string",
          "name": "",
          "type": "string"
        }
      ],
      "stateMutability": "view",
      "type": "function"
    },
    {
      "inputs": [],
      "name": "totalSupply",
      "outputs": [
        {
          "internalType": "uint256",
          "name": "",
          "type": "uint256"
        }
      ],
      "stateMutability": "view",
      "type": "function"
    },
    {
      "inputs": [
        {
          "internalType": "address",
          "name": "from",
          "type": "address"
        },
        {
          "internalType": "address",
          "name": "to",
          "type": "address"
        },
        {
          "internalType": "uint256",
          "name": "tokenId",
          "type": "uint256"
        }
      ],
      "name": "transferFrom",
      "outputs": [],
      "stateMutability": "nonpayable",
      "type": "function"
    },
    {
      "inputs": [
        {
          "internalType": "address",
          "name": "newOwner",
          "type": "address"
        }
      ],
      "name": "transferOwnership",
      "outputs": [],
      "stateMutability": "nonpayable",
      "type": "function"
    }
  ],
  "bytecode": "0x60806040523480156200001157600080fd5b506040518060400160405280600581526020017f4d794e46540000000000000000000000000000000000000000000000000000008152506040518060400160405280600481526020017f4d4e465400000000000000000000000000000000000000000000000000000000815250816000908051906020019062000096929190620001a6565b508060019080519060200190620000af929190620001a6565b505050620000d2620000c6620000d860201b60201c565b620000e060201b60201c565b620002bb565b600033905090565b6000600b60009054906101000a900473ffffffffffffffffffffffffffffffffffffffff16905081600b60006101000a81548173ffffffffffffffffffffffffffffffffffffffff021916908373ffffffffffffffffffffffffffffffffffffffff1602179055508173ffffffffffffffffffffffffffffffffffffffff168173ffffffffffffffffffffffffffffffffffffffff167f8be0079c531659141344cd1fd0a4f28419497f9722a3daafe3b4186f6b6457e060405160405180910390a35050565b828054620001b49062000256565b90600052602060002090601f016020900481019282620001d8576000855562000224565b82601f10620001f357805160ff191683800117855562000224565b8280016001018555821562000224579182015b828111156200022357825182559160200191906001019062000206565b5b50905062000233919062000237565b5090565b5b808211156200025257600081600090555060010162000238565b5090565b600060028204905060018216806200026f57607f821691505b602082108114156200028657620002856200028c565b5b50919050565b7f4e487b7100000000000000000000000000000000000000000000000000000000600052602260045260246000fd5b613de080620002cb6000396000f3fe60806040526004361061014b5760003560e01c8063715018a6116100b6578063b88d4fde1161006f578063b88d4fde146104bb578063c87b56dd146104e4578063cc8ea14614610521578063d204c45e1461055e578063e985e9c514610587578063f2fde38b146105c45761014b565b8063715018a6146103bf5780637e9dffe6146103d65780638da5cb5b1461041357806395d89b411461043e578063a22cb46514610469578063a7d881de146104925761014b565b806323b872dd1161010857806323b872dd146102795780632f745c59146102a257806342842e0e146102df5780634f6ccce7146103085780636352211e1461034557806370a08231146103825761014b565b806301ffc9a714610150578063022aca0b1461018d57806306fdde03146101bd578063081812fc146101e8578063095ea7b31461022557806318160ddd1461024e575b600080fd5b34801561015c57600080fd5b5061017760048036038101906101729190612c1c565b6105ed565b6040516101849190613145565b60405180910390f35b6101a760048036038101906101a29190612c6e565b6105ff565b6040516101b49190613145565b60405180910390f35b3480156101c957600080fd5b506101d26107e6565b6040516101df9190613160565b60405180910390f35b3480156101f457600080fd5b5061020f600480360381019061020a9190612c6e565b610878565b60405161021c91906130de565b60405180910390f35b34801561023157600080fd5b5061024c60048036038101906102479190612be0565b6108be565b005b34801561025a57600080fd5b506102636109d6565b6040516102709190613422565b60405180910390f35b34801561028557600080fd5b506102a0600480360381019061029b9190612a82565b6109e3565b005b3480156102ae57600080fd5b506102c960048036038101906102c49190612be0565b610a43565b6040516102d69190613422565b60405180910390f35b3480156102eb57600080fd5b5061030660048036038101906103019190612a82565b610ae8565b005b34801561031457600080fd5b5061032f600480360381019061032a9190612c6e565b610b08565b60405161033c9190613422565b60405180910390f35b34801561035157600080fd5b5061036c60048036038101906103679190612c6e565b610b9f565b60405161037991906130de565b60405180910390f35b34801561038e57600080fd5b506103a960048036038101906103a49190612a1d565b610c51565b6040516103b69190613422565b60405180910390f35b3480156103cb57600080fd5b506103d4610d09565b005b3480156103e257600080fd5b506103fd60048036038101906103f89190612c6e565b610d1d565b60405161040a9190613422565b60405180910390f35b34801561041f57600080fd5b50610428610d35565b60405161043591906130de565b60405180910390f35b34801561044a57600080fd5b50610453610d5f565b6040516104609190613160565b60405180910390f35b34801561047557600080fd5b50610490600480360381019061048b9190612b4c565b610df1565b005b34801561049e57600080fd5b506104b960048036038101906104b49190612c6e565b610e07565b005b3480156104c757600080fd5b506104e260048036038101906104dd9190612ad1565b610fdf565b005b3480156104f057600080fd5b5061050b60048036038101906105069190612c6e565b611041565b6040516105189190613160565b60405180910390f35b34801561052d57600080fd5b5061054860048036038101906105439190612c97565b611053565b6040516105559190613422565b60405180910390f35b34801561056a57600080fd5b5061058560048036038101906105809190612b88565b611078565b005b34801561059357600080fd5b506105ae60048036038101906105a99190612a46565b611176565b6040516105bb9190613145565b60405180910390f35b3480156105d057600080fd5b506105eb60048036038101906105e69190612a1d565b61120a565b005b60006105f88261128e565b9050919050565b60003373ffffffffffffffffffffffffffffffffffffffff16610620610d35565b73ffffffffffffffffffffffffffffffffffffffff161415610677576040517f08c379a000000000000000000000000000000000000000000000000000000000815260040161066e906133c2565b60405180910390fd5b66b1a2bc2ec5000034146106c0576040517f08c379a00000000000000000000000000000000000000000000000000000000081526004016106b790613182565b60405180910390fd5b60006106cb83610b9f565b905034600d600085815260200190815260200160002060008373ffffffffffffffffffffffffffffffffffffffff1673ffffffffffffffffffffffffffffffffffffffff168152602001908152602001600020600082825461072d91906134e1565b925050819055508073ffffffffffffffffffffffffffffffffffffffff1634604051610758906130c9565b60006040518083038185875af1925050503d8060008114610795576040519150601f19603f3d011682016040523d82523d6000602084013e61079a565b606091505b505080925050816107e0576040517f08c379a00000000000000000000000000000000000000000000000000000000081526004016107d7906133e2565b60405180910390fd5b50919050565b6060600080546107f59061367c565b80601f01602080910402602001604051908101604052809291908181526020018280546108219061367c565b801561086e5780601f106108435761010080835404028352916020019161086e565b820191906000526020600020905b81548152906001019060200180831161085157829003601f168201915b5050505050905090565b600061088382611308565b6004600083815260200190815260200160002060009054906101000a900473ffffffffffffffffffffffffffffffffffffffff169050919050565b60006108c982610b9f565b90508073ffffffffffffffffffffffffffffffffffffffff168373ffffffffffffffffffffffffffffffffffffffff16141561093a576040517f08c379a000000000000000000000000000000000000000000000000000000000815260040161093190613382565b60405180910390fd5b8073ffffffffffffffffffffffffffffffffffffffff16610959611353565b73ffffffffffffffffffffffffffffffffffffffff161480610988575061098781610982611353565b611176565b5b6109c7576040517f08c379a00000000000000000000000000000000000000000000000000000000081526004016109be90613302565b60405180910390fd5b6109d1838361135b565b505050565b6000600880549050905090565b6109f46109ee611353565b82611414565b610a33576040517f08c379a0000000000000000000000000000000000000000000000000000000008152600401610a2a90613402565b60405180910390fd5b610a3e8383836114a9565b505050565b6000610a4e83610c51565b8210610a8f576040517f08c379a0000000000000000000000000000000000000000000000000000000008152600401610a86906131a2565b60405180910390fd5b600660008473ffffffffffffffffffffffffffffffffffffffff1673ffffffffffffffffffffffffffffffffffffffff168152602001908152602001600020600083815260200190815260200160002054905092915050565b610b0383838360405180602001604052806000815250610fdf565b505050565b6000610b126109d6565b8210610b53576040517f08c379a0000000000000000000000000000000000000000000000000000000008152600401610b4a906133a2565b60405180910390fd5b60088281548110610b8d577f4e487b7100000000000000000000000000000000000000000000000000000000600052603260045260246000fd5b90600052602060002001549050919050565b6000806002600084815260200190815260200160002060009054906101000a900473ffffffffffffffffffffffffffffffffffffffff169050600073ffffffffffffffffffffffffffffffffffffffff168173ffffffffffffffffffffffffffffffffffffffff161415610c48576040517f08c379a0000000000000000000000000000000000000000000000000000000008152600401610c3f90613362565b60405180910390fd5b80915050919050565b60008073ffffffffffffffffffffffffffffffffffffffff168273ffffffffffffffffffffffffffffffffffffffff161415610cc2576040517f08c379a0000000000000000000000000000000000000000000000000000000008152600401610cb9906132c2565b60405180910390fd5b600360008373ffffffffffffffffffffffffffffffffffffffff1673ffffffffffffffffffffffffffffffffffffffff168152602001908152602001600020549050919050565b610d11611710565b610d1b600061178e565b565b600f6020528060005260406000206000915090505481565b6000600b60009054906101000a900473ffffffffffffffffffffffffffffffffffffffff16905090565b606060018054610d6e9061367c565b80601f0160208091040260200160405190810160405280929190818152602001828054610d9a9061367c565b8015610de75780601f10610dbc57610100808354040283529160200191610de7565b820191906000526020600020905b815481529060010190602001808311610dca57829003601f168201915b5050505050905090565b610e03610dfc611353565b8383611854565b5050565b610e10816119c1565b610e4f576040517f08c379a0000000000000000000000000000000000000000000000000000000008152600401610e46906132a2565b60405180910390fd5b600e600082815260200190815260200160002060003373ffffffffffffffffffffffffffffffffffffffff1673ffffffffffffffffffffffffffffffffffffffff16815260200190815260200160002060009054906101000a900460ff1615610f49576000600e600083815260200190815260200160002060003373ffffffffffffffffffffffffffffffffffffffff1673ffffffffffffffffffffffffffffffffffffffff16815260200190815260200160002060006101000a81548160ff021916908315150217905550600f60008281526020019081526020016000206000815480929190610f3f90613652565b9190505550610fdc565b6001600e600083815260200190815260200160002060003373ffffffffffffffffffffffffffffffffffffffff1673ffffffffffffffffffffffffffffffffffffffff16815260200190815260200160002060006101000a81548160ff021916908315150217905550600f60008281526020019081526020016000206000815480929190610fd6906136df565b91905055505b50565b610ff0610fea611353565b83611414565b61102f576040517f08c379a000000000000000000000000000000000000000000000000000000000815260040161102690613402565b60405180910390fd5b61103b84848484611a2d565b50505050565b606061104c82611a89565b9050919050565b600d602052816000526040600020602052806000526040600020600091509150505481565b611080611710565b600073ffffffffffffffffffffffffffffffffffffffff168373ffffffffffffffffffffffffffffffffffffffff1614156110f0576040517f08c379a00000000000000000000000000000000000000000000000000000000081526004016110e790613242565b60405180910390fd5b6000828290501161110057600080fd5b600061110c600c611b9c565b9050611118600c611baa565b6111228482611bc0565b6111708184848080601f016020809104026020016040519081016040528093929190818152602001838380828437600081840152601f19601f82011690508083019250505050505050611bde565b50505050565b6000600560008473ffffffffffffffffffffffffffffffffffffffff1673ffffffffffffffffffffffffffffffffffffffff16815260200190815260200160002060008373ffffffffffffffffffffffffffffffffffffffff1673ffffffffffffffffffffffffffffffffffffffff16815260200190815260200160002060009054906101000a900460ff16905092915050565b611212611710565b600073ffffffffffffffffffffffffffffffffffffffff168173ffffffffffffffffffffffffffffffffffffffff161415611282576040517f08c379a0000000000000000000000000000000000000000000000000000000008152600401611279906131e2565b60405180910390fd5b61128b8161178e565b50565b60007f780e9d63000000000000000000000000000000000000000000000000000000007bffffffffffffffffffffffffffffffffffffffffffffffffffffffff1916827bffffffffffffffffffffffffffffffffffffffffffffffffffffffff19161480611301575061130082611c52565b5b9050919050565b611311816119c1565b611350576040517f08c379a000000000000000000000000000000000000000000000000000000000815260040161134790613362565b60405180910390fd5b50565b600033905090565b816004600083815260200190815260200160002060006101000a81548173ffffffffffffffffffffffffffffffffffffffff021916908373ffffffffffffffffffffffffffffffffffffffff160217905550808273ffffffffffffffffffffffffffffffffffffffff166113ce83610b9f565b73ffffffffffffffffffffffffffffffffffffffff167f8c5be1e5ebec7d5bd14f71427d1e84f3dd0314c0f7b2291e5b200ac8c7c3b92560405160405180910390a45050565b60008061142083610b9f565b90508073ffffffffffffffffffffffffffffffffffffffff168473ffffffffffffffffffffffffffffffffffffffff16148061146257506114618185611176565b5b806114a057508373ffffffffffffffffffffffffffffffffffffffff1661148884610878565b73ffffffffffffffffffffffffffffffffffffffff16145b91505092915050565b8273ffffffffffffffffffffffffffffffffffffffff166114c982610b9f565b73ffffffffffffffffffffffffffffffffffffffff161461151f576040517f08c379a000000000000000000000000000000000000000000000000000000000815260040161151690613202565b60405180910390fd5b600073ffffffffffffffffffffffffffffffffffffffff168273ffffffffffffffffffffffffffffffffffffffff16141561158f576040517f08c379a000000000000000000000000000000000000000000000000000000000815260040161158690613262565b60405180910390fd5b61159a838383611d34565b6115a560008261135b565b6001600360008573ffffffffffffffffffffffffffffffffffffffff1673ffffffffffffffffffffffffffffffffffffffff16815260200190815260200160002060008282546115f59190613568565b925050819055506001600360008473ffffffffffffffffffffffffffffffffffffffff1673ffffffffffffffffffffffffffffffffffffffff168152602001908152602001600020600082825461164c91906134e1565b92505081905550816002600083815260200190815260200160002060006101000a81548173ffffffffffffffffffffffffffffffffffffffff021916908373ffffffffffffffffffffffffffffffffffffffff160217905550808273ffffffffffffffffffffffffffffffffffffffff168473ffffffffffffffffffffffffffffffffffffffff167fddf252ad1be2c89b69c2b068fc378daa952ba7f163c4a11628f55a4df523b3ef60405160405180910390a461170b838383611d44565b505050565b611718611353565b73ffffffffffffffffffffffffffffffffffffffff16611736610d35565b73ffffffffffffffffffffffffffffffffffffffff161461178c576040517f08c379a000000000000000000000000000000000000000000000000000000000815260040161178390613342565b60405180910390fd5b565b6000600b60009054906101000a900473ffffffffffffffffffffffffffffffffffffffff16905081600b60006101000a81548173ffffffffffffffffffffffffffffffffffffffff021916908373ffffffffffffffffffffffffffffffffffffffff1602179055508173ffffffffffffffffffffffffffffffffffffffff168173ffffffffffffffffffffffffffffffffffffffff167f8be0079c531659141344cd1fd0a4f28419497f9722a3daafe3b4186f6b6457e060405160405180910390a35050565b8173ffffffffffffffffffffffffffffffffffffffff168373ffffffffffffffffffffffffffffffffffffffff1614156118c3576040517f08c379a00000000000000000000000000000000000000000000000000000000081526004016118ba90613282565b60405180910390fd5b80600560008573ffffffffffffffffffffffffffffffffffffffff1673ffffffffffffffffffffffffffffffffffffffff16815260200190815260200160002060008473ffffffffffffffffffffffffffffffffffffffff1673ffffffffffffffffffffffffffffffffffffffff16815260200190815260200160002060006101000a81548160ff0219169083151502179055508173ffffffffffffffffffffffffffffffffffffffff168373ffffffffffffffffffffffffffffffffffffffff167f17307eab39ab6107e8899845ad3d59bd9653f200f220920489ca2b5937696c31836040516119b49190613145565b60405180910390a3505050565b60008073ffffffffffffffffffffffffffffffffffffffff166002600084815260200190815260200160002060009054906101000a900473ffffffffffffffffffffffffffffffffffffffff1673ffffffffffffffffffffffffffffffffffffffff1614159050919050565b611a388484846114a9565b611a4484848484611d49565b611a83576040517f08c379a0000000000000000000000000000000000000000000000000000000008152600401611a7a906131c2565b60405180910390fd5b50505050565b6060611a9482611308565b6000600a60008481526020019081526020016000208054611ab49061367c565b80601f0160208091040260200160405190810160405280929190818152602001828054611ae09061367c565b8015611b2d5780601f10611b0257610100808354040283529160200191611b2d565b820191906000526020600020905b815481529060010190602001808311611b1057829003601f168201915b505050505090506000611b3e611ee0565b9050600081511415611b54578192505050611b97565b600082511115611b89578082604051602001611b719291906130a5565b60405160208183030381529060405292505050611b97565b611b9284611ef7565b925050505b919050565b600081600001549050919050565b6001816000016000828254019250508190555050565b611bda828260405180602001604052806000815250611f5f565b5050565b611be7826119c1565b611c26576040517f08c379a0000000000000000000000000000000000000000000000000000000008152600401611c1d906132e2565b60405180910390fd5b80600a60008481526020019081526020016000209080519060200190611c4d92919061285f565b505050565b60007f80ac58cd000000000000000000000000000000000000000000000000000000007bffffffffffffffffffffffffffffffffffffffffffffffffffffffff1916827bffffffffffffffffffffffffffffffffffffffffffffffffffffffff19161480611d1d57507f5b5e139f000000000000000000000000000000000000000000000000000000007bffffffffffffffffffffffffffffffffffffffffffffffffffffffff1916827bffffffffffffffffffffffffffffffffffffffffffffffffffffffff1916145b80611d2d5750611d2c82611fba565b5b9050919050565b611d3f838383612024565b505050565b505050565b6000611d6a8473ffffffffffffffffffffffffffffffffffffffff16612138565b15611ed3578373ffffffffffffffffffffffffffffffffffffffff1663150b7a02611d93611353565b8786866040518563ffffffff1660e01b8152600401611db594939291906130f9565b602060405180830381600087803b158015611dcf57600080fd5b505af1925050508015611e0057506040513d601f19601f82011682018060405250810190611dfd9190612c45565b60015b611e83573d8060008114611e30576040519150601f19603f3d011682016040523d82523d6000602084013e611e35565b606091505b50600081511415611e7b576040517f08c379a0000000000000000000000000000000000000000000000000000000008152600401611e72906131c2565b60405180910390fd5b805181602001fd5b63150b7a0260e01b7bffffffffffffffffffffffffffffffffffffffffffffffffffffffff1916817bffffffffffffffffffffffffffffffffffffffffffffffffffffffff191614915050611ed8565b600190505b949350505050565b606060405180602001604052806000815250905090565b6060611f0282611308565b6000611f0c611ee0565b90506000815111611f2c5760405180602001604052806000815250611f57565b80611f368461215b565b604051602001611f479291906130a5565b6040516020818303038152906040525b915050919050565b611f698383612308565b611f766000848484611d49565b611fb5576040517f08c379a0000000000000000000000000000000000000000000000000000000008152600401611fac906131c2565b60405180910390fd5b505050565b60007f01ffc9a7000000000000000000000000000000000000000000000000000000007bffffffffffffffffffffffffffffffffffffffffffffffffffffffff1916827bffffffffffffffffffffffffffffffffffffffffffffffffffffffff1916149050919050565b61202f8383836124e2565b600073ffffffffffffffffffffffffffffffffffffffff168373ffffffffffffffffffffffffffffffffffffffff1614156120725761206d816124e7565b6120b1565b8173ffffffffffffffffffffffffffffffffffffffff168373ffffffffffffffffffffffffffffffffffffffff16146120b0576120af8382612530565b5b5b600073ffffffffffffffffffffffffffffffffffffffff168273ffffffffffffffffffffffffffffffffffffffff1614156120f4576120ef8161269d565b612133565b8273ffffffffffffffffffffffffffffffffffffffff168273ffffffffffffffffffffffffffffffffffffffff16146121325761213182826127e0565b5b5b505050565b6000808273ffffffffffffffffffffffffffffffffffffffff163b119050919050565b606060008214156121a3576040518060400160405280600181526020017f30000000000000000000000000000000000000000000000000000000000000008152509050612303565b600082905060005b600082146121d55780806121be906136df565b915050600a826121ce9190613537565b91506121ab565b60008167ffffffffffffffff811115612217577f4e487b7100000000000000000000000000000000000000000000000000000000600052604160045260246000fd5b6040519080825280601f01601f1916602001820160405280156122495781602001600182028036833780820191505090505b5090505b600085146122fc576001826122629190613568565b9150600a856122719190613728565b603061227d91906134e1565b60f81b8183815181106122b9577f4e487b7100000000000000000000000000000000000000000000000000000000600052603260045260246000fd5b60200101907effffffffffffffffffffffffffffffffffffffffffffffffffffffffffffff1916908160001a905350600a856122f59190613537565b945061224d565b8093505050505b919050565b600073ffffffffffffffffffffffffffffffffffffffff168273ffffffffffffffffffffffffffffffffffffffff161415612378576040517f08c379a000000000000000000000000000000000000000000000000000000000815260040161236f90613322565b60405180910390fd5b612381816119c1565b156123c1576040517f08c379a00000000000000000000000000000000000000000000000000000000081526004016123b890613222565b60405180910390fd5b6123cd60008383611d34565b6001600360008473ffffffffffffffffffffffffffffffffffffffff1673ffffffffffffffffffffffffffffffffffffffff168152602001908152602001600020600082825461241d91906134e1565b92505081905550816002600083815260200190815260200160002060006101000a81548173ffffffffffffffffffffffffffffffffffffffff021916908373ffffffffffffffffffffffffffffffffffffffff160217905550808273ffffffffffffffffffffffffffffffffffffffff16600073ffffffffffffffffffffffffffffffffffffffff167fddf252ad1be2c89b69c2b068fc378daa952ba7f163c4a11628f55a4df523b3ef60405160405180910390a46124de60008383611d44565b5050565b505050565b6008805490506009600083815260200190815260200160002081905550600881908060018154018082558091505060019003906000526020600020016000909190919091505550565b6000600161253d84610c51565b6125479190613568565b905060006007600084815260200190815260200160002054905081811461262c576000600660008673ffffffffffffffffffffffffffffffffffffffff1673ffffffffffffffffffffffffffffffffffffffff168152602001908152602001600020600084815260200190815260200160002054905080600660008773ffffffffffffffffffffffffffffffffffffffff1673ffffffffffffffffffffffffffffffffffffffff168152602001908152602001600020600084815260200190815260200160002081905550816007600083815260200190815260200160002081905550505b6007600084815260200190815260200160002060009055600660008573ffffffffffffffffffffffffffffffffffffffff1673ffffffffffffffffffffffffffffffffffffffff16815260200190815260200160002060008381526020019081526020016000206000905550505050565b600060016008805490506126b19190613568565b9050600060096000848152602001908152602001600020549050600060088381548110612707577f4e487b7100000000000000000000000000000000000000000000000000000000600052603260045260246000fd5b90600052602060002001549050806008838154811061274f577f4e487b7100000000000000000000000000000000000000000000000000000000600052603260045260246000fd5b9060005260206000200181905550816009600083815260200190815260200160002081905550600960008581526020019081526020016000206000905560088054806127c4577f4e487b7100000000000000000000000000000000000000000000000000000000600052603160045260246000fd5b6001900381819060005260206000200160009055905550505050565b60006127eb83610c51565b905081600660008573ffffffffffffffffffffffffffffffffffffffff1673ffffffffffffffffffffffffffffffffffffffff168152602001908152602001600020600083815260200190815260200160002081905550806007600084815260200190815260200160002081905550505050565b82805461286b9061367c565b90600052602060002090601f01602090048101928261288d57600085556128d4565b82601f106128a657805160ff19168380011785556128d4565b828001600101855582156128d4579182015b828111156128d35782518255916020019190600101906128b8565b5b5090506128e191906128e5565b5090565b5b808211156128fe5760008160009055506001016128e6565b5090565b600061291561291084613462565b61343d565b90508281526020810184848401111561292d57600080fd5b612938848285613610565b509392505050565b60008135905061294f81613d4e565b92915050565b60008135905061296481613d65565b92915050565b60008135905061297981613d7c565b92915050565b60008151905061298e81613d7c565b92915050565b600082601f8301126129a557600080fd5b81356129b5848260208601612902565b91505092915050565b60008083601f8401126129d057600080fd5b8235905067ffffffffffffffff8111156129e957600080fd5b602083019150836001820283011115612a0157600080fd5b9250929050565b600081359050612a1781613d93565b92915050565b600060208284031215612a2f57600080fd5b6000612a3d84828501612940565b91505092915050565b60008060408385031215612a5957600080fd5b6000612a6785828601612940565b9250506020612a7885828601612940565b9150509250929050565b600080600060608486031215612a9757600080fd5b6000612aa586828701612940565b9350506020612ab686828701612940565b9250506040612ac786828701612a08565b9150509250925092565b60008060008060808587031215612ae757600080fd5b6000612af587828801612940565b9450506020612b0687828801612940565b9350506040612b1787828801612a08565b925050606085013567ffffffffffffffff811115612b3457600080fd5b612b4087828801612994565b91505092959194509250565b60008060408385031215612b5f57600080fd5b6000612b6d85828601612940565b9250506020612b7e85828601612955565b9150509250929050565b600080600060408486031215612b9d57600080fd5b6000612bab86828701612940565b935050602084013567ffffffffffffffff811115612bc857600080fd5b612bd4868287016129be565b92509250509250925092565b60008060408385031215612bf357600080fd5b6000612c0185828601612940565b9250506020612c1285828601612a08565b9150509250929050565b600060208284031215612c2e57600080fd5b6000612c3c8482850161296a565b91505092915050565b600060208284031215612c5757600080fd5b6000612c658482850161297f565b91505092915050565b600060208284031215612c8057600080fd5b6000612c8e84828501612a08565b91505092915050565b60008060408385031215612caa57600080fd5b6000612cb885828601612a08565b9250506020612cc985828601612940565b9150509250929050565b612cdc8161359c565b82525050565b612ceb816135ae565b82525050565b6000612cfc82613493565b612d0681856134a9565b9350612d1681856020860161361f565b612d1f81613815565b840191505092915050565b6000612d358261349e565b612d3f81856134c5565b9350612d4f81856020860161361f565b612d5881613815565b840191505092915050565b6000612d6e8261349e565b612d7881856134d6565b9350612d8881856020860161361f565b80840191505092915050565b6000612da16023836134c5565b9150612dac82613826565b604082019050919050565b6000612dc4602b836134c5565b9150612dcf82613875565b604082019050919050565b6000612de76032836134c5565b9150612df2826138c4565b604082019050919050565b6000612e0a6026836134c5565b9150612e1582613913565b604082019050919050565b6000612e2d6025836134c5565b9150612e3882613962565b604082019050919050565b6000612e50601c836134c5565b9150612e5b826139b1565b602082019050919050565b6000612e736016836134c5565b9150612e7e826139da565b602082019050919050565b6000612e966024836134c5565b9150612ea182613a03565b604082019050919050565b6000612eb96019836134c5565b9150612ec482613a52565b602082019050919050565b6000612edc601c836134c5565b9150612ee782613a7b565b602082019050919050565b6000612eff6029836134c5565b9150612f0a82613aa4565b604082019050919050565b6000612f22602e836134c5565b9150612f2d82613af3565b604082019050919050565b6000612f45603e836134c5565b9150612f5082613b42565b604082019050919050565b6000612f686020836134c5565b9150612f7382613b91565b602082019050919050565b6000612f8b6020836134c5565b9150612f9682613bba565b602082019050919050565b6000612fae6018836134c5565b9150612fb982613be3565b602082019050919050565b6000612fd16021836134c5565b9150612fdc82613c0c565b604082019050919050565b6000612ff46000836134ba565b9150612fff82613c5b565b600082019050919050565b6000613017602c836134c5565b915061302282613c5e565b604082019050919050565b600061303a6018836134c5565b915061304582613cad565b602082019050919050565b600061305d600e836134c5565b915061306882613cd6565b602082019050919050565b6000613080602e836134c5565b915061308b82613cff565b604082019050919050565b61309f81613606565b82525050565b60006130b18285612d63565b91506130bd8284612d63565b91508190509392505050565b60006130d482612fe7565b9150819050919050565b60006020820190506130f36000830184612cd3565b92915050565b600060808201905061310e6000830187612cd3565b61311b6020830186612cd3565b6131286040830185613096565b818103606083015261313a8184612cf1565b905095945050505050565b600060208201905061315a6000830184612ce2565b92915050565b6000602082019050818103600083015261317a8184612d2a565b905092915050565b6000602082019050818103600083015261319b81612d94565b9050919050565b600060208201905081810360008301526131bb81612db7565b9050919050565b600060208201905081810360008301526131db81612dda565b9050919050565b600060208201905081810360008301526131fb81612dfd565b9050919050565b6000602082019050818103600083015261321b81612e20565b9050919050565b6000602082019050818103600083015261323b81612e43565b9050919050565b6000602082019050818103600083015261325b81612e66565b9050919050565b6000602082019050818103600083015261327b81612e89565b9050919050565b6000602082019050818103600083015261329b81612eac565b9050919050565b600060208201905081810360008301526132bb81612ecf565b9050919050565b600060208201905081810360008301526132db81612ef2565b9050919050565b600060208201905081810360008301526132fb81612f15565b9050919050565b6000602082019050818103600083015261331b81612f38565b9050919050565b6000602082019050818103600083015261333b81612f5b565b9050919050565b6000602082019050818103600083015261335b81612f7e565b9050919050565b6000602082019050818103600083015261337b81612fa1565b9050919050565b6000602082019050818103600083015261339b81612fc4565b9050919050565b600060208201905081810360008301526133bb8161300a565b9050919050565b600060208201905081810360008301526133db8161302d565b9050919050565b600060208201905081810360008301526133fb81613050565b9050919050565b6000602082019050818103600083015261341b81613073565b9050919050565b60006020820190506134376000830184613096565b92915050565b6000613447613458565b905061345382826136ae565b919050565b6000604051905090565b600067ffffffffffffffff82111561347d5761347c6137e6565b5b61348682613815565b9050602081019050919050565b600081519050919050565b600081519050919050565b600082825260208201905092915050565b600081905092915050565b600082825260208201905092915050565b600081905092915050565b60006134ec82613606565b91506134f783613606565b9250827fffffffffffffffffffffffffffffffffffffffffffffffffffffffffffffffff0382111561352c5761352b613759565b5b828201905092915050565b600061354282613606565b915061354d83613606565b92508261355d5761355c613788565b5b828204905092915050565b600061357382613606565b915061357e83613606565b92508282101561359157613590613759565b5b828203905092915050565b60006135a7826135e6565b9050919050565b60008115159050919050565b60007fffffffff0000000000000000000000000000000000000000000000000000000082169050919050565b600073ffffffffffffffffffffffffffffffffffffffff82169050919050565b6000819050919050565b82818337600083830152505050565b60005b8381101561363d578082015181840152602081019050613622565b8381111561364c576000848401525b50505050565b600061365d82613606565b9150600082141561367157613670613759565b5b600182039050919050565b6000600282049050600182168061369457607f821691505b602082108114156136a8576136a76137b7565b5b50919050565b6136b782613815565b810181811067ffffffffffffffff821117156136d6576136d56137e6565b5b80604052505050565b60006136ea82613606565b91507fffffffffffffffffffffffffffffffffffffffffffffffffffffffffffffffff82141561371d5761371c613759565b5b600182019050919050565b600061373382613606565b915061373e83613606565b92508261374e5761374d613788565b5b828206905092915050565b7f4e487b7100000000000000000000000000000000000000000000000000000000600052601160045260246000fd5b7f4e487b7100000000000000000000000000000000000000000000000000000000600052601260045260246000fd5b7f4e487b7100000000000000000000000000000000000000000000000000000000600052602260045260246000fd5b7f4e487b7100000000000000000000000000000000000000000000000000000000600052604160045260246000fd5b6000601f19601f8301169050919050565b7f596f752063616e20746970206f6e6c7920302e352043454c4f2061742061207460008201527f696d650000000000000000000000000000000000000000000000000000000000602082015250565b7f455243373231456e756d657261626c653a206f776e657220696e646578206f7560008201527f74206f6620626f756e6473000000000000000000000000000000000000000000602082015250565b7f4552433732313a207472616e7366657220746f206e6f6e20455243373231526560008201527f63656976657220696d706c656d656e7465720000000000000000000000000000602082015250565b7f4f776e61626c653a206e6577206f776e657220697320746865207a65726f206160008201527f6464726573730000000000000000000000000000000000000000000000000000602082015250565b7f4552433732313a207472616e736665722066726f6d20696e636f72726563742060008201527f6f776e6572000000000000000000000000000000000000000000000000000000602082015250565b7f4552433732313a20746f6b656e20616c7265616479206d696e74656400000000600082015250565b7f496e76616c6964206d696e746572206164647265737300000000000000000000600082015250565b7f4552433732313a207472616e7366657220746f20746865207a65726f2061646460008201527f7265737300000000000000000000000000000000000000000000000000000000602082015250565b7f4552433732313a20617070726f766520746f2063616c6c657200000000000000600082015250565b7f5175657279206f66206e6f6e6578697374656e7420746f6b656e496400000000600082015250565b7f4552433732313a2061646472657373207a65726f206973206e6f74206120766160008201527f6c6964206f776e65720000000000000000000000000000000000000000000000602082015250565b7f45524337323155524953746f726167653a2055524920736574206f66206e6f6e60008201527f6578697374656e7420746f6b656e000000000000000000000000000000000000602082015250565b7f4552433732313a20617070726f76652063616c6c6572206973206e6f7420746f60008201527f6b656e206f776e6572206e6f7220617070726f76656420666f7220616c6c0000602082015250565b7f4552433732313a206d696e7420746f20746865207a65726f2061646472657373600082015250565b7f4f776e61626c653a2063616c6c6572206973206e6f7420746865206f776e6572600082015250565b7f4552433732313a20696e76616c696420746f6b656e2049440000000000000000600082015250565b7f4552433732313a20617070726f76616c20746f2063757272656e74206f776e6560008201527f7200000000000000000000000000000000000000000000000000000000000000602082015250565b50565b7f455243373231456e756d657261626c653a20676c6f62616c20696e646578206f60008201527f7574206f6620626f756e64730000000000000000000000000000000000000000602082015250565b7f4f776e65722063616e2774207469702068697320617274730000000000000000600082015250565b7f4661696c656420746f2073656e64000000000000000000000000000000000000600082015250565b7f4552433732313a2063616c6c6572206973206e6f7420746f6b656e206f776e6560008201527f72206e6f7220617070726f766564000000000000000000000000000000000000602082015250565b613d578161359c565b8114613d6257600080fd5b50565b613d6e816135ae565b8114613d7957600080fd5b50565b613d85816135ba565b8114613d9057600080fd5b50565b613d9c81613606565b8114613da757600080fd5b5056fea26469706673582212201091f64850a37079c8803e3a22a9c4a376223da9618162d3bff446aea056a0c564736f6c63430008040033",
  "linkReferences": {},
  "deployedLinkReferences": {}
}